{
  "address": "0x5d5d36C0bA6B8Bc7b90eB7Dbd03a87eBFCa58d80",
  "abi": [
    {
      "inputs": [
        {
          "internalType": "address",
          "name": "_stableCoin",
          "type": "address"
        }
      ],
      "stateMutability": "nonpayable",
      "type": "constructor"
    },
    {
      "anonymous": false,
      "inputs": [
        {
          "indexed": true,
          "internalType": "uint256",
          "name": "campaignId",
          "type": "uint256"
        },
        {
          "indexed": true,
          "internalType": "address",
          "name": "sender",
          "type": "address"
        },
        {
          "indexed": false,
          "internalType": "string",
          "name": "title",
          "type": "string"
        },
        {
          "indexed": false,
          "internalType": "uint256",
          "name": "goalAmount",
          "type": "uint256"
        }
      ],
      "name": "CampaignCreated",
      "type": "event"
    },
    {
      "anonymous": false,
      "inputs": [
        {
          "indexed": true,
          "internalType": "uint256",
          "name": "campaignId",
          "type": "uint256"
        },
        {
          "indexed": true,
          "internalType": "address",
          "name": "sender",
          "type": "address"
        },
        {
          "indexed": false,
          "internalType": "string",
          "name": "title",
          "type": "string"
        },
        {
          "indexed": false,
          "internalType": "uint256",
          "name": "totalAmount",
          "type": "uint256"
        }
      ],
      "name": "CampaignFinalized",
      "type": "event"
    },
    {
      "anonymous": false,
      "inputs": [
        {
          "indexed": true,
          "internalType": "uint256",
          "name": "campaignId",
          "type": "uint256"
        },
        {
          "indexed": true,
          "internalType": "address",
          "name": "contributor",
          "type": "address"
        }
      ],
      "name": "ContributionMade",
      "type": "event"
    },
    {
      "anonymous": false,
      "inputs": [
        {
          "indexed": true,
          "internalType": "address",
          "name": "recipient",
          "type": "address"
        },
        {
          "indexed": false,
          "internalType": "uint256",
          "name": "amount",
          "type": "uint256"
        }
      ],
      "name": "FundTokenTransferred",
      "type": "event"
    },
    {
      "anonymous": false,
      "inputs": [
        {
          "indexed": true,
          "internalType": "uint256",
          "name": "campaignId",
          "type": "uint256"
        }
      ],
      "name": "GoalReached",
      "type": "event"
    },
    {
      "inputs": [
        {
          "internalType": "uint256",
          "name": "",
          "type": "uint256"
        }
      ],
      "name": "campaigns",
      "outputs": [
        {
          "internalType": "uint256",
          "name": "id",
          "type": "uint256"
        },
        {
          "internalType": "address",
          "name": "sender",
          "type": "address"
        },
        {
          "internalType": "string",
          "name": "ipfs",
          "type": "string"
        },
        {
          "internalType": "string",
          "name": "club",
          "type": "string"
        },
        {
          "internalType": "uint256",
          "name": "goalAmount",
          "type": "uint256"
        },
        {
          "internalType": "uint256",
          "name": "currentAmount",
          "type": "uint256"
        },
        {
          "internalType": "bool",
          "name": "finalized",
          "type": "bool"
        },
        {
          "internalType": "uint256",
          "name": "endCampaign",
          "type": "uint256"
        }
      ],
      "stateMutability": "view",
      "type": "function"
    },
    {
      "inputs": [],
      "name": "checkAndFinalizeCampaigns",
      "outputs": [],
      "stateMutability": "nonpayable",
      "type": "function"
    },
    {
      "inputs": [
        {
          "internalType": "uint256",
          "name": "_campaignId",
          "type": "uint256"
        },
        {
          "internalType": "uint256",
          "name": "contributionAmount",
          "type": "uint256"
        }
      ],
      "name": "contribute",
      "outputs": [],
      "stateMutability": "payable",
      "type": "function"
    },
    {
      "inputs": [
        {
          "internalType": "string",
          "name": "_ipfs",
          "type": "string"
        },
        {
          "internalType": "string",
          "name": "_club",
          "type": "string"
        },
        {
          "internalType": "uint256",
          "name": "_goalAmount",
          "type": "uint256"
        },
        {
          "internalType": "uint256",
          "name": "_endCampaign",
          "type": "uint256"
        }
      ],
      "name": "createCampaign",
      "outputs": [],
      "stateMutability": "nonpayable",
      "type": "function"
    },
    {
      "inputs": [],
      "name": "fundToken",
      "outputs": [
        {
          "internalType": "contract ERC20",
          "name": "",
          "type": "address"
        }
      ],
      "stateMutability": "view",
      "type": "function"
    },
    {
      "inputs": [
        {
          "internalType": "string",
          "name": "_club",
          "type": "string"
        }
      ],
      "name": "getAllCampaignsByClub",
      "outputs": [
        {
          "components": [
            {
              "internalType": "uint256",
              "name": "id",
              "type": "uint256"
            },
            {
              "internalType": "address",
              "name": "sender",
              "type": "address"
            },
            {
              "internalType": "string",
              "name": "ipfs",
              "type": "string"
            },
            {
              "internalType": "string",
              "name": "club",
              "type": "string"
            },
            {
              "internalType": "uint256",
              "name": "goalAmount",
              "type": "uint256"
            },
            {
              "internalType": "uint256",
              "name": "currentAmount",
              "type": "uint256"
            },
            {
              "internalType": "bool",
              "name": "finalized",
              "type": "bool"
            },
            {
              "internalType": "uint256",
              "name": "endCampaign",
              "type": "uint256"
            }
          ],
          "internalType": "struct Fundraising.Campaign[]",
          "name": "",
          "type": "tuple[]"
        }
      ],
      "stateMutability": "view",
      "type": "function"
    },
    {
      "inputs": [],
      "name": "getCampaignCount",
      "outputs": [
        {
          "internalType": "uint256",
          "name": "",
          "type": "uint256"
        }
      ],
      "stateMutability": "view",
      "type": "function"
    },
    {
      "inputs": [],
      "name": "getCampaigns",
      "outputs": [
        {
          "components": [
            {
              "internalType": "uint256",
              "name": "id",
              "type": "uint256"
            },
            {
              "internalType": "address",
              "name": "sender",
              "type": "address"
            },
            {
              "internalType": "string",
              "name": "ipfs",
              "type": "string"
            },
            {
              "internalType": "string",
              "name": "club",
              "type": "string"
            },
            {
              "internalType": "uint256",
              "name": "goalAmount",
              "type": "uint256"
            },
            {
              "internalType": "uint256",
              "name": "currentAmount",
              "type": "uint256"
            },
            {
              "internalType": "bool",
              "name": "finalized",
              "type": "bool"
            },
            {
              "internalType": "uint256",
              "name": "endCampaign",
              "type": "uint256"
            }
          ],
          "internalType": "struct Fundraising.Campaign[]",
          "name": "",
          "type": "tuple[]"
        }
      ],
      "stateMutability": "view",
      "type": "function"
    },
    {
      "inputs": [
        {
          "internalType": "address",
          "name": "contributer",
          "type": "address"
        }
      ],
      "name": "getFundToken",
      "outputs": [
        {
          "internalType": "uint256",
          "name": "",
          "type": "uint256"
        }
      ],
      "stateMutability": "view",
      "type": "function"
    },
    {
      "inputs": [],
      "name": "owner",
      "outputs": [
        {
          "internalType": "address",
          "name": "",
          "type": "address"
        }
      ],
      "stateMutability": "view",
      "type": "function"
    },
    {
      "inputs": [],
      "name": "stablecoin",
      "outputs": [
        {
          "internalType": "contract ERC20",
          "name": "",
          "type": "address"
        }
      ],
      "stateMutability": "view",
      "type": "function"
    },
    {
      "inputs": [
        {
          "internalType": "address",
          "name": "_newStableCoin",
          "type": "address"
        }
      ],
      "name": "switchStableCoin",
      "outputs": [],
      "stateMutability": "nonpayable",
      "type": "function"
    }
  ],
  "transactionHash": "0x1b6e1568d8c783bc0a536565ac67a5dd1aa0634869d58cc2d1c35c0e47d9dd43",
  "args": [
    "0xf9ABbBb65D3012d2b9C6f0bc19CaA989978348bE"
  ],
  "numDeployments": 1,
  "solcInputHash": "c094dbb658252504d75262cbfe5a749f",
  "bytecode": "0x60806040523480156200001157600080fd5b5060405162002822380380620028228339810160408190526200003491620000b5565b600380546001600160a01b031916331790556040516200005490620000a7565b604051809103906000f08015801562000071573d6000803e3d6000fd5b50600180546001600160a01b039283166001600160a01b03199182161790915560028054939092169216919091179055620000e7565b610cb18062001b7183390190565b600060208284031215620000c857600080fd5b81516001600160a01b0381168114620000e057600080fd5b9392505050565b611a7a80620000f76000396000f3fe6080604052600436106100a75760003560e01c806395f079361161006457806395f07936146101a25780639623c464146101b7578063a318f269146101d7578063a6b03633146101f7578063e9cbd8221461020c578063ea8f386a1461022c57600080fd5b8063141961bc146100ac5780631e3cb670146100e957806350adcdb7146101165780636caa92181461014e5780638c5909171461016d5780638da5cb5b14610182575b600080fd5b3480156100b857600080fd5b506100cc6100c736600461143a565b61024c565b6040516100e0989796959493929190611499565b60405180910390f35b3480156100f557600080fd5b506101096101043660046115a3565b6103c2565b6040516100e091906115e0565b34801561012257600080fd5b50600154610136906001600160a01b031681565b6040516001600160a01b0390911681526020016100e0565b34801561015a57600080fd5b506000545b6040519081526020016100e0565b61018061017b3660046116be565b610731565b005b34801561018e57600080fd5b50600354610136906001600160a01b031681565b3480156101ae57600080fd5b50610180610bdf565b3480156101c357600080fd5b506101806101d23660046116e0565b610c6a565b3480156101e357600080fd5b506101806101f2366004611710565b610cf8565b34801561020357600080fd5b50610109610e86565b34801561021857600080fd5b50600254610136906001600160a01b031681565b34801561023857600080fd5b5061015f6102473660046116e0565b61105d565b6000818154811061025c57600080fd5b60009182526020909120600890910201805460018201546002830180549294506001600160a01b03909116929161029290611784565b80601f01602080910402602001604051908101604052809291908181526020018280546102be90611784565b801561030b5780601f106102e05761010080835404028352916020019161030b565b820191906000526020600020905b8154815290600101906020018083116102ee57829003601f168201915b50505050509080600301805461032090611784565b80601f016020809104026020016040519081016040528092919081815260200182805461034c90611784565b80156103995780601f1061036e57610100808354040283529160200191610399565b820191906000526020600020905b81548152906001019060200180831161037c57829003601f168201915b5050506004840154600585015460068601546007909601549495919490935060ff909116915088565b60606000805b600054811015610438578380519060200120600082815481106103ed576103ed6117be565b906000526020600020906008020160030160405161040b91906117d4565b604051809103902003610426578161042281611860565b9250505b8061043081611860565b9150506103c8565b5060008167ffffffffffffffff81111561045457610454611500565b6040519080825280602002602001820160405280156104d857816020015b6104c56040518061010001604052806000815260200160006001600160a01b0316815260200160608152602001606081526020016000815260200160008152602001600015158152602001600081525090565b8152602001906001900390816104725790505b5090506000805b60005481101561072757858051906020012060008281548110610504576105046117be565b906000526020600020906008020160030160405161052291906117d4565b6040518091039020036107155760008181548110610542576105426117be565b906000526020600020906008020160405180610100016040529081600082015481526020016001820160009054906101000a90046001600160a01b03166001600160a01b03166001600160a01b031681526020016002820180546105a590611784565b80601f01602080910402602001604051908101604052809291908181526020018280546105d190611784565b801561061e5780601f106105f35761010080835404028352916020019161061e565b820191906000526020600020905b81548152906001019060200180831161060157829003601f168201915b5050505050815260200160038201805461063790611784565b80601f016020809104026020016040519081016040528092919081815260200182805461066390611784565b80156106b05780601f10610685576101008083540402835291602001916106b0565b820191906000526020600020905b81548152906001019060200180831161069357829003601f168201915b50505091835250506004820154602082015260058201546040820152600682015460ff161515606082015260079091015460809091015283518490849081106106fb576106fb6117be565b6020026020010181905250818061071190611860565b9250505b8061071f81611860565b9150506104df565b5090949350505050565b60005482106107875760405162461bcd60e51b815260206004820152601760248201527f43616d706169676e20646f6573206e6f7420657869737400000000000000000060448201526064015b60405180910390fd5b6000828154811061079a5761079a6117be565b600091825260209091206006600890920201015460ff16156107fe5760405162461bcd60e51b815260206004820152601d60248201527f43616d706169676e20697320616c72656164792066696e616c697a6564000000604482015260640161077e565b6002546040516370a0823160e01b815233600482015282916001600160a01b0316906370a0823190602401602060405180830381865afa158015610846573d6000803e3d6000fd5b505050506040513d601f19601f8201168201806040525081019061086a9190611879565b10156108af5760405162461bcd60e51b8152602060048201526014602482015273496e73756666696369656e742062616c616e636560601b604482015260640161077e565b42600083815481106108c3576108c36117be565b9060005260206000209060080201600701541161091b5760405162461bcd60e51b8152602060048201526016602482015275151a194818d85b5c185a59db881a185cc8195b99195960521b604482015260640161077e565b6002546040516323b872dd60e01b8152336004820152306024820152604481018390526001600160a01b03909116906323b872dd906064016020604051808303816000875af1158015610972573d6000803e3d6000fd5b505050506040513d601f19601f820116820180604052508101906109969190611892565b6109e25760405162461bcd60e51b815260206004820152601a60248201527f537461626c65636f696e207472616e73666572206661696c6564000000000000604482015260640161077e565b80600083815481106109f6576109f66117be565b90600052602060002090600802016005016000828254610a1691906118b4565b9091555050604051339083907f307c1c8dcf9e5e0b374f6c475ff7c473dd02a9248096afa14405976e4ea1eb6a90600090a360008281548110610a5b57610a5b6117be565b90600052602060002090600802016004015460008381548110610a8057610a806117be565b90600052602060002090600802016005015410610acb5760405182907ffbfd8ab7c24300fa9888cd721c8565a7da56759384781283684dcf7c7c4a846b90600090a2610acb826110d2565b6000610ad86064836118c7565b610ae39060146118e9565b60015460405163a9059cbb60e01b8152336004820152602481018390529192506001600160a01b03169063a9059cbb906044016020604051808303816000875af1158015610b35573d6000803e3d6000fd5b505050506040513d601f19601f82011682018060405250810190610b599190611892565b610ba55760405162461bcd60e51b815260206004820152601b60248201527f46756e64546f6b656e3432207472616e73666572206661696c65640000000000604482015260640161077e565b60405181815233907fb2dcc2cda2b117a3db32eada3779068fa20eb57bd229145a69e6750088b887349060200160405180910390a2505050565b60005b600054811015610c675760008181548110610bff57610bff6117be565b600091825260209091206006600890920201015460ff16158015610c47575060008181548110610c3157610c316117be565b9060005260206000209060080201600701544210155b15610c5557610c55816110d2565b80610c5f81611860565b915050610be2565b50565b6003546001600160a01b03163314610cd65760405162461bcd60e51b815260206004820152602960248201527f4f6e6c7920746865206f776e65722063616e206368616e67652074686520737460448201526830b136329031b7b4b760b91b606482015260840161077e565b600280546001600160a01b0319166001600160a01b0392909216919091179055565b6040805161010081018252600080548083523360208401908152938301888152606084018890526080840187905260a0840183905260c0840183905260e0840186905260018201835591805282517f290decd9548b62a8d60345a988386fc84ba6bc95484008f6362f93160ef3e563600890920291820190815593517f290decd9548b62a8d60345a988386fc84ba6bc95484008f6362f93160ef3e564820180546001600160a01b0319166001600160a01b0390921691909117905590519192917f290decd9548b62a8d60345a988386fc84ba6bc95484008f6362f93160ef3e56590910190610de8908261194f565b5060608201516003820190610dfd908261194f565b506080820151600482015560a0820151600582015560c082015160068201805460ff191691151591909117905560e0909101516007909101556000543390610e4790600190611a0f565b7f825fb10f7650ed27414d6f86acdf7d5946927d9b25001f045f1a2435deec02fe8685604051610e78929190611a22565b60405180910390a350505050565b60606000805480602002602001604051908101604052809291908181526020016000905b828210156110545760008481526020908190206040805161010081018252600886029092018054835260018101546001600160a01b03169383019390935260028301805492939291840191610efe90611784565b80601f0160208091040260200160405190810160405280929190818152602001828054610f2a90611784565b8015610f775780601f10610f4c57610100808354040283529160200191610f77565b820191906000526020600020905b815481529060010190602001808311610f5a57829003601f168201915b50505050508152602001600382018054610f9090611784565b80601f0160208091040260200160405190810160405280929190818152602001828054610fbc90611784565b80156110095780601f10610fde57610100808354040283529160200191611009565b820191906000526020600020905b815481529060010190602001808311610fec57829003601f168201915b5050509183525050600482015460208083019190915260058301546040830152600683015460ff16151560608301526007909201546080909101529082526001929092019101610eaa565b50505050905090565b6001546040516370a0823160e01b81526001600160a01b03838116600483015260009216906370a0823190602401602060405180830381865afa1580156110a8573d6000803e3d6000fd5b505050506040513d601f19601f820116820180604052508101906110cc9190611879565b92915050565b60008082815481106110e6576110e66117be565b906000526020600020906008020160405180610100016040529081600082015481526020016001820160009054906101000a90046001600160a01b03166001600160a01b03166001600160a01b0316815260200160028201805461114990611784565b80601f016020809104026020016040519081016040528092919081815260200182805461117590611784565b80156111c25780601f10611197576101008083540402835291602001916111c2565b820191906000526020600020905b8154815290600101906020018083116111a557829003601f168201915b505050505081526020016003820180546111db90611784565b80601f016020809104026020016040519081016040528092919081815260200182805461120790611784565b80156112545780601f1061122957610100808354040283529160200191611254565b820191906000526020600020905b81548152906001019060200180831161123757829003601f168201915b50505091835250506004820154602082015260058201546040820152600682015460ff161515606082015260079091015460809091015260c0810151909150156112e05760405162461bcd60e51b815260206004820152601d60248201527f43616d706169676e20697320616c72656164792066696e616c697a6564000000604482015260640161077e565b600254602082015160a083015160405163a9059cbb60e01b81526001600160a01b039283166004820152602481019190915291169063a9059cbb906044016020604051808303816000875af115801561133d573d6000803e3d6000fd5b505050506040513d601f19601f820116820180604052508101906113619190611892565b6113ad5760405162461bcd60e51b815260206004820152601760248201527f537461626c65636f696e206772616e74206661696c6564000000000000000000604482015260640161077e565b6001600083815481106113c2576113c26117be565b906000526020600020906008020160060160006101000a81548160ff021916908315150217905550336001600160a01b0316827f06eff44b8e0fd0aab29b8ab14df9b9e86ec2a9068861c573ec59e362fd24685883604001518460a0015160405161142e929190611a22565b60405180910390a35050565b60006020828403121561144c57600080fd5b5035919050565b6000815180845260005b818110156114795760208185018101518683018201520161145d565b506000602082860101526020601f19601f83011685010191505092915050565b8881526001600160a01b0388166020820152610100604082018190526000906114c48382018a611453565b905082810360608401526114d88189611453565b6080840197909752505060a081019390935290151560c083015260e090910152949350505050565b634e487b7160e01b600052604160045260246000fd5b600082601f83011261152757600080fd5b813567ffffffffffffffff8082111561154257611542611500565b604051601f8301601f19908116603f0116810190828211818310171561156a5761156a611500565b8160405283815286602085880101111561158357600080fd5b836020870160208301376000602085830101528094505050505092915050565b6000602082840312156115b557600080fd5b813567ffffffffffffffff8111156115cc57600080fd5b6115d884828501611516565b949350505050565b60006020808301818452808551808352604092508286019150828160051b87010184880160005b838110156116b057888303603f19018552815180518452878101516001600160a01b031688850152868101516101008886018190529061164982870182611453565b915050606080830151868303828801526116638382611453565b92505050608080830151818701525060a080830151818701525060c0808301516116908288018215159052565b505060e09182015194909101939093529386019390860190600101611607565b509098975050505050505050565b600080604083850312156116d157600080fd5b50508035926020909101359150565b6000602082840312156116f257600080fd5b81356001600160a01b038116811461170957600080fd5b9392505050565b6000806000806080858703121561172657600080fd5b843567ffffffffffffffff8082111561173e57600080fd5b61174a88838901611516565b9550602087013591508082111561176057600080fd5b5061176d87828801611516565b949794965050505060408301359260600135919050565b600181811c9082168061179857607f821691505b6020821081036117b857634e487b7160e01b600052602260045260246000fd5b50919050565b634e487b7160e01b600052603260045260246000fd5b60008083546117e281611784565b600182811680156117fa576001811461180f5761183e565b60ff198416875282151583028701945061183e565b8760005260208060002060005b858110156118355781548a82015290840190820161181c565b50505082870194505b50929695505050505050565b634e487b7160e01b600052601160045260246000fd5b6000600182016118725761187261184a565b5060010190565b60006020828403121561188b57600080fd5b5051919050565b6000602082840312156118a457600080fd5b8151801515811461170957600080fd5b808201808211156110cc576110cc61184a565b6000826118e457634e487b7160e01b600052601260045260246000fd5b500490565b80820281158282048414176110cc576110cc61184a565b601f82111561194a57600081815260208120601f850160051c810160208610156119275750805b601f850160051c820191505b8181101561194657828155600101611933565b5050505b505050565b815167ffffffffffffffff81111561196957611969611500565b61197d816119778454611784565b84611900565b602080601f8311600181146119b2576000841561199a5750858301515b600019600386901b1c1916600185901b178555611946565b600085815260208120601f198616915b828110156119e1578886015182559484019460019091019084016119c2565b50858210156119ff5787850151600019600388901b60f8161c191681555b5050505050600190811b01905550565b818103818111156110cc576110cc61184a565b604081526000611a356040830185611453565b9050826020830152939250505056fea2646970667358221220dd912bcef3f1d69983f3ac725fe8f0b9fc44bc6898c843b222df72847241e4c964736f6c6343000811003360806040523480156200001157600080fd5b506040518060400160405280600b81526020016a233ab7322a37b5b2b71a1960a91b8152506040518060400160405280600381526020016246544b60e81b815250816003908162000063919062000226565b50600462000072828262000226565b505050620000ac336200008a620000b260201b60201c565b6200009790600a62000407565b620000a690620f42406200041f565b620000b7565b6200044f565b601290565b6001600160a01b038216620001125760405162461bcd60e51b815260206004820152601f60248201527f45524332303a206d696e7420746f20746865207a65726f206164647265737300604482015260640160405180910390fd5b806002600082825462000126919062000439565b90915550506001600160a01b038216600081815260208181526040808320805486019055518481527fddf252ad1be2c89b69c2b068fc378daa952ba7f163c4a11628f55a4df523b3ef910160405180910390a35050565b505050565b634e487b7160e01b600052604160045260246000fd5b600181811c90821680620001ad57607f821691505b602082108103620001ce57634e487b7160e01b600052602260045260246000fd5b50919050565b601f8211156200017d57600081815260208120601f850160051c81016020861015620001fd5750805b601f850160051c820191505b818110156200021e5782815560010162000209565b505050505050565b81516001600160401b0381111562000242576200024262000182565b6200025a8162000253845462000198565b84620001d4565b602080601f831160018114620002925760008415620002795750858301515b600019600386901b1c1916600185901b1785556200021e565b600085815260208120601f198616915b82811015620002c357888601518255948401946001909101908401620002a2565b5085821015620002e25787850151600019600388901b60f8161c191681555b5050505050600190811b01905550565b634e487b7160e01b600052601160045260246000fd5b600181815b80851115620003495781600019048211156200032d576200032d620002f2565b808516156200033b57918102915b93841c93908002906200030d565b509250929050565b600082620003625750600162000401565b81620003715750600062000401565b81600181146200038a57600281146200039557620003b5565b600191505062000401565b60ff841115620003a957620003a9620002f2565b50506001821b62000401565b5060208310610133831016604e8410600b8410161715620003da575081810a62000401565b620003e6838362000308565b8060001904821115620003fd57620003fd620002f2565b0290505b92915050565b60006200041860ff84168362000351565b9392505050565b8082028115828204841417620004015762000401620002f2565b80820180821115620004015762000401620002f2565b610852806200045f6000396000f3fe608060405234801561001057600080fd5b50600436106100a95760003560e01c80633950935111610071578063395093511461012357806370a082311461013657806395d89b411461015f578063a457c2d714610167578063a9059cbb1461017a578063dd62ed3e1461018d57600080fd5b806306fdde03146100ae578063095ea7b3146100cc57806318160ddd146100ef57806323b872dd14610101578063313ce56714610114575b600080fd5b6100b66101a0565b6040516100c3919061069c565b60405180910390f35b6100df6100da366004610706565b610232565b60405190151581526020016100c3565b6002545b6040519081526020016100c3565b6100df61010f366004610730565b61024c565b604051601281526020016100c3565b6100df610131366004610706565b610270565b6100f361014436600461076c565b6001600160a01b031660009081526020819052604090205490565b6100b6610292565b6100df610175366004610706565b6102a1565b6100df610188366004610706565b610321565b6100f361019b36600461078e565b61032f565b6060600380546101af906107c1565b80601f01602080910402602001604051908101604052809291908181526020018280546101db906107c1565b80156102285780601f106101fd57610100808354040283529160200191610228565b820191906000526020600020905b81548152906001019060200180831161020b57829003601f168201915b5050505050905090565b60003361024081858561035a565b60019150505b92915050565b60003361025a85828561047e565b6102658585856104f8565b506001949350505050565b600033610240818585610283838361032f565b61028d91906107fb565b61035a565b6060600480546101af906107c1565b600033816102af828661032f565b9050838110156103145760405162461bcd60e51b815260206004820152602560248201527f45524332303a2064656372656173656420616c6c6f77616e63652062656c6f77604482015264207a65726f60d81b60648201526084015b60405180910390fd5b610265828686840361035a565b6000336102408185856104f8565b6001600160a01b03918216600090815260016020908152604080832093909416825291909152205490565b6001600160a01b0383166103bc5760405162461bcd60e51b8152602060048201526024808201527f45524332303a20617070726f76652066726f6d20746865207a65726f206164646044820152637265737360e01b606482015260840161030b565b6001600160a01b03821661041d5760405162461bcd60e51b815260206004820152602260248201527f45524332303a20617070726f766520746f20746865207a65726f206164647265604482015261737360f01b606482015260840161030b565b6001600160a01b0383811660008181526001602090815260408083209487168084529482529182902085905590518481527f8c5be1e5ebec7d5bd14f71427d1e84f3dd0314c0f7b2291e5b200ac8c7c3b925910160405180910390a3505050565b600061048a848461032f565b905060001981146104f257818110156104e55760405162461bcd60e51b815260206004820152601d60248201527f45524332303a20696e73756666696369656e7420616c6c6f77616e6365000000604482015260640161030b565b6104f2848484840361035a565b50505050565b6001600160a01b03831661055c5760405162461bcd60e51b815260206004820152602560248201527f45524332303a207472616e736665722066726f6d20746865207a65726f206164604482015264647265737360d81b606482015260840161030b565b6001600160a01b0382166105be5760405162461bcd60e51b815260206004820152602360248201527f45524332303a207472616e7366657220746f20746865207a65726f206164647260448201526265737360e81b606482015260840161030b565b6001600160a01b038316600090815260208190526040902054818110156106365760405162461bcd60e51b815260206004820152602660248201527f45524332303a207472616e7366657220616d6f756e7420657863656564732062604482015265616c616e636560d01b606482015260840161030b565b6001600160a01b03848116600081815260208181526040808320878703905593871680835291849020805487019055925185815290927fddf252ad1be2c89b69c2b068fc378daa952ba7f163c4a11628f55a4df523b3ef910160405180910390a36104f2565b600060208083528351808285015260005b818110156106c9578581018301518582016040015282016106ad565b506000604082860101526040601f19601f8301168501019250505092915050565b80356001600160a01b038116811461070157600080fd5b919050565b6000806040838503121561071957600080fd5b610722836106ea565b946020939093013593505050565b60008060006060848603121561074557600080fd5b61074e846106ea565b925061075c602085016106ea565b9150604084013590509250925092565b60006020828403121561077e57600080fd5b610787826106ea565b9392505050565b600080604083850312156107a157600080fd5b6107aa836106ea565b91506107b8602084016106ea565b90509250929050565b600181811c908216806107d557607f821691505b6020821081036107f557634e487b7160e01b600052602260045260246000fd5b50919050565b8082018082111561024657634e487b7160e01b600052601160045260246000fdfea2646970667358221220beac032d1da1b3075094d0cab6730edfb03519cedfcc3ecc0f622cbc1400ca7364736f6c63430008110033",
  "devdoc": {
    "kind": "dev",
    "methods": {},
    "version": 1
  },
  "userdoc": {
    "kind": "user",
    "methods": {},
    "version": 1
  },
  "storageLayout": {
    "storage": [
      {
        "astId": 758,
        "contract": "contracts/Fundraising.sol:Fundraising",
        "label": "campaigns",
        "offset": 0,
        "slot": "0",
        "type": "t_array(t_struct(Campaign)754_storage)dyn_storage"
      },
      {
        "astId": 761,
        "contract": "contracts/Fundraising.sol:Fundraising",
        "label": "fundToken",
        "offset": 0,
        "slot": "1",
        "type": "t_contract(ERC20)586"
      },
      {
        "astId": 764,
        "contract": "contracts/Fundraising.sol:Fundraising",
        "label": "stablecoin",
        "offset": 0,
        "slot": "2",
        "type": "t_contract(ERC20)586"
      },
      {
        "astId": 766,
        "contract": "contracts/Fundraising.sol:Fundraising",
        "label": "owner",
        "offset": 0,
        "slot": "3",
        "type": "t_address"
      }
    ],
    "types": {
      "t_address": {
        "encoding": "inplace",
        "label": "address",
        "numberOfBytes": "20"
      },
      "t_array(t_struct(Campaign)754_storage)dyn_storage": {
        "base": "t_struct(Campaign)754_storage",
        "encoding": "dynamic_array",
        "label": "struct Fundraising.Campaign[]",
        "numberOfBytes": "32"
      },
      "t_bool": {
        "encoding": "inplace",
        "label": "bool",
        "numberOfBytes": "1"
      },
      "t_contract(ERC20)586": {
        "encoding": "inplace",
        "label": "contract ERC20",
        "numberOfBytes": "20"
      },
      "t_string_storage": {
        "encoding": "bytes",
        "label": "string",
        "numberOfBytes": "32"
      },
      "t_struct(Campaign)754_storage": {
        "encoding": "inplace",
        "label": "struct Fundraising.Campaign",
        "members": [
          {
            "astId": 739,
            "contract": "contracts/Fundraising.sol:Fundraising",
            "label": "id",
            "offset": 0,
            "slot": "0",
            "type": "t_uint256"
          },
          {
            "astId": 741,
            "contract": "contracts/Fundraising.sol:Fundraising",
            "label": "sender",
            "offset": 0,
            "slot": "1",
            "type": "t_address"
          },
          {
            "astId": 743,
            "contract": "contracts/Fundraising.sol:Fundraising",
            "label": "ipfs",
            "offset": 0,
            "slot": "2",
            "type": "t_string_storage"
          },
          {
            "astId": 745,
            "contract": "contracts/Fundraising.sol:Fundraising",
            "label": "club",
            "offset": 0,
            "slot": "3",
            "type": "t_string_storage"
          },
          {
            "astId": 747,
            "contract": "contracts/Fundraising.sol:Fundraising",
            "label": "goalAmount",
            "offset": 0,
            "slot": "4",
            "type": "t_uint256"
          },
          {
            "astId": 749,
            "contract": "contracts/Fundraising.sol:Fundraising",
            "label": "currentAmount",
            "offset": 0,
            "slot": "5",
            "type": "t_uint256"
          },
          {
            "astId": 751,
            "contract": "contracts/Fundraising.sol:Fundraising",
            "label": "finalized",
            "offset": 0,
            "slot": "6",
            "type": "t_bool"
          },
          {
            "astId": 753,
            "contract": "contracts/Fundraising.sol:Fundraising",
            "label": "endCampaign",
            "offset": 0,
            "slot": "7",
            "type": "t_uint256"
          }
        ],
        "numberOfBytes": "256"
      },
      "t_uint256": {
        "encoding": "inplace",
        "label": "uint256",
        "numberOfBytes": "32"
      }
    }
  }
}