{
  "address": "0xccA9728291bC98ff4F97EF57Be3466227b0eb06C",
  "abi": [
    {
      "inputs": [
        {
          "internalType": "address",
          "name": "_stableCoin",
          "type": "address"
        }
      ],
      "stateMutability": "nonpayable",
      "type": "constructor"
    },
    {
      "anonymous": false,
      "inputs": [
        {
          "indexed": true,
          "internalType": "uint256",
          "name": "campaignId",
          "type": "uint256"
        },
        {
          "indexed": true,
          "internalType": "address",
          "name": "creator",
          "type": "address"
        },
        {
          "indexed": false,
          "internalType": "string",
          "name": "title",
          "type": "string"
        },
        {
          "indexed": false,
          "internalType": "uint256",
          "name": "goalAmount",
          "type": "uint256"
        }
      ],
      "name": "CampaignCreated",
      "type": "event"
    },
    {
      "anonymous": false,
      "inputs": [
        {
          "indexed": true,
          "internalType": "uint256",
          "name": "campaignId",
          "type": "uint256"
        },
        {
          "indexed": true,
          "internalType": "address",
          "name": "creator",
          "type": "address"
        },
        {
          "indexed": false,
          "internalType": "string",
          "name": "title",
          "type": "string"
        },
        {
          "indexed": false,
          "internalType": "uint256",
          "name": "totalAmount",
          "type": "uint256"
        }
      ],
      "name": "CampaignFinalized",
      "type": "event"
    },
    {
      "anonymous": false,
      "inputs": [
        {
          "indexed": true,
          "internalType": "uint256",
          "name": "campaignId",
          "type": "uint256"
        },
        {
          "indexed": true,
          "internalType": "address",
          "name": "contributor",
          "type": "address"
        }
      ],
      "name": "ContributionMade",
      "type": "event"
    },
    {
      "anonymous": false,
      "inputs": [
        {
          "indexed": true,
          "internalType": "address",
          "name": "recipient",
          "type": "address"
        },
        {
          "indexed": false,
          "internalType": "uint256",
          "name": "amount",
          "type": "uint256"
        }
      ],
      "name": "FundTokenTransferred",
      "type": "event"
    },
    {
      "anonymous": false,
      "inputs": [
        {
          "indexed": true,
          "internalType": "uint256",
          "name": "campaignId",
          "type": "uint256"
        }
      ],
      "name": "GoalReached",
      "type": "event"
    },
    {
      "inputs": [
        {
          "internalType": "uint256",
          "name": "",
          "type": "uint256"
        }
      ],
      "name": "campaigns",
      "outputs": [
        {
          "internalType": "address",
          "name": "creator",
          "type": "address"
        },
        {
          "internalType": "string",
          "name": "ipfs",
          "type": "string"
        },
        {
          "internalType": "string",
          "name": "club",
          "type": "string"
        },
        {
          "internalType": "uint256",
          "name": "goalAmount",
          "type": "uint256"
        },
        {
          "internalType": "uint256",
          "name": "currentAmount",
          "type": "uint256"
        },
        {
          "internalType": "bool",
          "name": "finalized",
          "type": "bool"
        },
        {
          "internalType": "uint256",
          "name": "endCampaign",
          "type": "uint256"
        }
      ],
      "stateMutability": "view",
      "type": "function"
    },
    {
      "inputs": [],
      "name": "checkAndFinalizeCampaigns",
      "outputs": [],
      "stateMutability": "nonpayable",
      "type": "function"
    },
    {
      "inputs": [
        {
          "internalType": "uint256",
          "name": "_campaignId",
          "type": "uint256"
        },
        {
          "internalType": "uint256",
          "name": "contributionAmount",
          "type": "uint256"
        }
      ],
      "name": "contribute",
      "outputs": [],
      "stateMutability": "payable",
      "type": "function"
    },
    {
      "inputs": [
        {
          "internalType": "uint256",
          "name": "",
          "type": "uint256"
        },
        {
          "internalType": "address",
          "name": "",
          "type": "address"
        }
      ],
      "name": "contributions",
      "outputs": [
        {
          "internalType": "uint256",
          "name": "",
          "type": "uint256"
        }
      ],
      "stateMutability": "view",
      "type": "function"
    },
    {
      "inputs": [
        {
          "internalType": "string",
          "name": "_ipfs",
          "type": "string"
        },
        {
          "internalType": "string",
          "name": "_club",
          "type": "string"
        },
        {
          "internalType": "uint256",
          "name": "_goalAmount",
          "type": "uint256"
        },
        {
          "internalType": "uint256",
          "name": "_endCampaign",
          "type": "uint256"
        }
      ],
      "name": "createCampaign",
      "outputs": [],
      "stateMutability": "nonpayable",
      "type": "function"
    },
    {
      "inputs": [],
      "name": "fundToken",
      "outputs": [
        {
          "internalType": "contract ERC20",
          "name": "",
          "type": "address"
        }
      ],
      "stateMutability": "view",
      "type": "function"
    },
    {
      "inputs": [
        {
          "internalType": "string",
          "name": "_club",
          "type": "string"
        }
      ],
      "name": "getAllCampaignsByClub",
      "outputs": [
        {
          "components": [
            {
              "internalType": "address",
              "name": "creator",
              "type": "address"
            },
            {
              "internalType": "string",
              "name": "ipfs",
              "type": "string"
            },
            {
              "internalType": "string",
              "name": "club",
              "type": "string"
            },
            {
              "internalType": "uint256",
              "name": "goalAmount",
              "type": "uint256"
            },
            {
              "internalType": "uint256",
              "name": "currentAmount",
              "type": "uint256"
            },
            {
              "internalType": "bool",
              "name": "finalized",
              "type": "bool"
            },
            {
              "internalType": "uint256",
              "name": "endCampaign",
              "type": "uint256"
            }
          ],
          "internalType": "struct Fundraising.Campaign[]",
          "name": "",
          "type": "tuple[]"
        }
      ],
      "stateMutability": "view",
      "type": "function"
    },
    {
      "inputs": [],
      "name": "getCampaignCount",
      "outputs": [
        {
          "internalType": "uint256",
          "name": "",
          "type": "uint256"
        }
      ],
      "stateMutability": "view",
      "type": "function"
    },
    {
      "inputs": [
        {
          "internalType": "address",
          "name": "test",
          "type": "address"
        }
      ],
      "name": "getFundToken",
      "outputs": [
        {
          "internalType": "uint256",
          "name": "",
          "type": "uint256"
        }
      ],
      "stateMutability": "view",
      "type": "function"
    },
    {
      "inputs": [],
      "name": "owner",
      "outputs": [
        {
          "internalType": "address",
          "name": "",
          "type": "address"
        }
      ],
      "stateMutability": "view",
      "type": "function"
    },
    {
      "inputs": [],
      "name": "stablecoin",
      "outputs": [
        {
          "internalType": "contract ERC20",
          "name": "",
          "type": "address"
        }
      ],
      "stateMutability": "view",
      "type": "function"
    },
    {
      "inputs": [
        {
          "internalType": "address",
          "name": "_newStableCoin",
          "type": "address"
        }
      ],
      "name": "switchStableCoin",
      "outputs": [],
      "stateMutability": "nonpayable",
      "type": "function"
    }
  ],
  "transactionHash": "0x762991251398d871e8054f4c23a79af89cc574189fd1b1e364602ac4c88752ea",
  "args": [
    "0xDDa0648FA8c9cD593416EC37089C2a2E6060B45c"
  ],
  "numDeployments": 1,
  "solcInputHash": "f9c2016779f09e9b618fa76bb18667ef",
  "bytecode": "0x60806040523480156200001157600080fd5b50604051620025f9380380620025f98339810160408190526200003491620000b5565b600480546001600160a01b031916331790556040516200005490620000a7565b604051809103906000f08015801562000071573d6000803e3d6000fd5b50600280546001600160a01b039283166001600160a01b03199182161790915560038054939092169216919091179055620000e7565b610caf806200194a83390190565b600060208284031215620000c857600080fd5b81516001600160a01b0381168114620000e057600080fd5b9392505050565b61185380620000f76000396000f3fe6080604052600436106100a75760003560e01c80638da5cb5b116100645780638da5cb5b146101ba57806395f07936146101da5780639623c464146101ef578063a318f2691461020f578063e9cbd8221461022f578063ea8f386a1461024f57600080fd5b8063141961bc146100ac5780631e3cb670146100e85780633d891f591461011557806350adcdb7146101585780636caa9218146101905780638c590917146101a5575b600080fd5b3480156100b857600080fd5b506100cc6100c73660046111fb565b61026f565b6040516100df979695949392919061125a565b60405180910390f35b3480156100f457600080fd5b5061010861010336600461135a565b6103de565b6040516100df9190611397565b34801561012157600080fd5b5061014a610130366004611479565b600060208181529281526040808220909352908152205481565b6040519081526020016100df565b34801561016457600080fd5b50600254610178906001600160a01b031681565b6040516001600160a01b0390911681526020016100df565b34801561019c57600080fd5b5060015461014a565b6101b86101b33660046114a5565b610722565b005b3480156101c657600080fd5b50600454610178906001600160a01b031681565b3480156101e657600080fd5b506101b8610bd0565b3480156101fb57600080fd5b506101b861020a3660046114c7565b610c5b565b34801561021b57600080fd5b506101b861022a3660046114e9565b610ce9565b34801561023b57600080fd5b50600354610178906001600160a01b031681565b34801561025b57600080fd5b5061014a61026a3660046114c7565b610e44565b6001818154811061027f57600080fd5b6000918252602090912060079091020180546001820180546001600160a01b039092169350906102ae9061155d565b80601f01602080910402602001604051908101604052809291908181526020018280546102da9061155d565b80156103275780601f106102fc57610100808354040283529160200191610327565b820191906000526020600020905b81548152906001019060200180831161030a57829003601f168201915b50505050509080600201805461033c9061155d565b80601f01602080910402602001604051908101604052809291908181526020018280546103689061155d565b80156103b55780601f1061038a576101008083540402835291602001916103b5565b820191906000526020600020905b81548152906001019060200180831161039857829003601f168201915b5050506003840154600485015460058601546006909601549495919490935060ff909116915087565b60606000805b6001548110156104545783805190602001206001828154811061040957610409611597565b906000526020600020906007020160020160405161042791906115ad565b604051809103902003610442578161043e81611639565b9250505b8061044c81611639565b9150506103e4565b5060008167ffffffffffffffff811115610470576104706112b7565b6040519080825280602002602001820160405280156104ec57816020015b6104d96040518060e0016040528060006001600160a01b0316815260200160608152602001606081526020016000815260200160008152602001600015158152602001600081525090565b81526020019060019003908161048e5790505b5090506000805b6001548110156107185785805190602001206001828154811061051857610518611597565b906000526020600020906007020160020160405161053691906115ad565b604051809103902003610706576001818154811061055657610556611597565b60009182526020918290206040805160e0810190915260079092020180546001600160a01b0316825260018101805492939192918401916105969061155d565b80601f01602080910402602001604051908101604052809291908181526020018280546105c29061155d565b801561060f5780601f106105e45761010080835404028352916020019161060f565b820191906000526020600020905b8154815290600101906020018083116105f257829003601f168201915b505050505081526020016002820180546106289061155d565b80601f01602080910402602001604051908101604052809291908181526020018280546106549061155d565b80156106a15780601f10610676576101008083540402835291602001916106a1565b820191906000526020600020905b81548152906001019060200180831161068457829003601f168201915b50505091835250506003820154602082015260048201546040820152600582015460ff161515606082015260069091015460809091015283518490849081106106ec576106ec611597565b6020026020010181905250818061070290611639565b9250505b8061071081611639565b9150506104f3565b5090949350505050565b60015482106107785760405162461bcd60e51b815260206004820152601760248201527f43616d706169676e20646f6573206e6f7420657869737400000000000000000060448201526064015b60405180910390fd5b6001828154811061078b5761078b611597565b600091825260209091206005600790920201015460ff16156107ef5760405162461bcd60e51b815260206004820152601d60248201527f43616d706169676e20697320616c72656164792066696e616c697a6564000000604482015260640161076f565b6003546040516370a0823160e01b815233600482015282916001600160a01b0316906370a0823190602401602060405180830381865afa158015610837573d6000803e3d6000fd5b505050506040513d601f19601f8201168201806040525081019061085b9190611652565b10156108a05760405162461bcd60e51b8152602060048201526014602482015273496e73756666696369656e742062616c616e636560601b604482015260640161076f565b42600183815481106108b4576108b4611597565b9060005260206000209060070201600601541061090c5760405162461bcd60e51b8152602060048201526016602482015275151a194818d85b5c185a59db881a185cc8195b99195960521b604482015260640161076f565b6003546040516323b872dd60e01b8152336004820152306024820152604481018390526001600160a01b03909116906323b872dd906064016020604051808303816000875af1158015610963573d6000803e3d6000fd5b505050506040513d601f19601f82011682018060405250810190610987919061166b565b6109d35760405162461bcd60e51b815260206004820152601a60248201527f537461626c65636f696e207472616e73666572206661696c6564000000000000604482015260640161076f565b80600183815481106109e7576109e7611597565b90600052602060002090600702016004016000828254610a07919061168d565b9091555050604051339083907f307c1c8dcf9e5e0b374f6c475ff7c473dd02a9248096afa14405976e4ea1eb6a90600090a360018281548110610a4c57610a4c611597565b90600052602060002090600702016003015460018381548110610a7157610a71611597565b90600052602060002090600702016004015410610abc5760405182907ffbfd8ab7c24300fa9888cd721c8565a7da56759384781283684dcf7c7c4a846b90600090a2610abc82610eb9565b6000610ac96064836116a0565b610ad49060146116c2565b60025460405163a9059cbb60e01b8152336004820152602481018390529192506001600160a01b03169063a9059cbb906044016020604051808303816000875af1158015610b26573d6000803e3d6000fd5b505050506040513d601f19601f82011682018060405250810190610b4a919061166b565b610b965760405162461bcd60e51b815260206004820152601960248201527f46756e64546f6b656e207472616e73666572206661696c656400000000000000604482015260640161076f565b60405181815233907fb2dcc2cda2b117a3db32eada3779068fa20eb57bd229145a69e6750088b887349060200160405180910390a2505050565b60005b600154811015610c585760018181548110610bf057610bf0611597565b600091825260209091206005600790920201015460ff16158015610c38575060018181548110610c2257610c22611597565b9060005260206000209060070201600601544210155b15610c4657610c4681610eb9565b80610c5081611639565b915050610bd3565b50565b6004546001600160a01b03163314610cc75760405162461bcd60e51b815260206004820152602960248201527f4f6e6c7920746865206f776e65722063616e206368616e67652074686520737460448201526830b136329031b7b4b760b91b606482015260840161076f565b600380546001600160a01b0319166001600160a01b0392909216919091179055565b6040805160e081018252338152602081018681529181018590526060810184905260006080820181905260a0820181905260c08201849052600180548082018255915281517fb10e2d527612073b26eecdfd717e6a320cf44b4afac2b0732d9fcbe2b7fa0cf6600790920291820180546001600160a01b0319166001600160a01b0390921691909117815592519192917fb10e2d527612073b26eecdfd717e6a320cf44b4afac2b0732d9fcbe2b7fa0cf790910190610da89082611728565b5060408201516002820190610dbd9082611728565b50606082015160038201556080820151600482015560a082015160058201805460ff191691151591909117905560c090910151600690910155600180543391610e05916117e8565b7f825fb10f7650ed27414d6f86acdf7d5946927d9b25001f045f1a2435deec02fe8685604051610e369291906117fb565b60405180910390a350505050565b6002546040516370a0823160e01b81526001600160a01b03838116600483015260009216906370a0823190602401602060405180830381865afa158015610e8f573d6000803e3d6000fd5b505050506040513d601f19601f82011682018060405250810190610eb39190611652565b92915050565b600060018281548110610ece57610ece611597565b60009182526020918290206040805160e0810190915260079092020180546001600160a01b031682526001810180549293919291840191610f0e9061155d565b80601f0160208091040260200160405190810160405280929190818152602001828054610f3a9061155d565b8015610f875780601f10610f5c57610100808354040283529160200191610f87565b820191906000526020600020905b815481529060010190602001808311610f6a57829003601f168201915b50505050508152602001600282018054610fa09061155d565b80601f0160208091040260200160405190810160405280929190818152602001828054610fcc9061155d565b80156110195780601f10610fee57610100808354040283529160200191611019565b820191906000526020600020905b815481529060010190602001808311610ffc57829003601f168201915b50505091835250506003820154602082015260048201546040820152600582015460ff161515606082015260069091015460809091015260a0810151909150156110a55760405162461bcd60e51b815260206004820152601d60248201527f43616d706169676e20697320616c72656164792066696e616c697a6564000000604482015260640161076f565b6003548151608083015160405163a9059cbb60e01b81526001600160a01b039283166004820152602481019190915291169063a9059cbb906044016020604051808303816000875af11580156110ff573d6000803e3d6000fd5b505050506040513d601f19601f82011682018060405250810190611123919061166b565b61116f5760405162461bcd60e51b815260206004820152601760248201527f537461626c65636f696e206772616e74206661696c6564000000000000000000604482015260640161076f565b600180838154811061118357611183611597565b906000526020600020906007020160050160006101000a81548160ff021916908315150217905550336001600160a01b0316827f06eff44b8e0fd0aab29b8ab14df9b9e86ec2a9068861c573ec59e362fd246858836020015184608001516040516111ef9291906117fb565b60405180910390a35050565b60006020828403121561120d57600080fd5b5035919050565b6000815180845260005b8181101561123a5760208185018101518683018201520161121e565b506000602082860101526020601f19601f83011685010191505092915050565b6001600160a01b038816815260e06020820181905260009061127e90830189611214565b82810360408401526112908189611214565b60608401979097525050608081019390935290151560a083015260c0909101529392505050565b634e487b7160e01b600052604160045260246000fd5b600082601f8301126112de57600080fd5b813567ffffffffffffffff808211156112f9576112f96112b7565b604051601f8301601f19908116603f01168101908282118183101715611321576113216112b7565b8160405283815286602085880101111561133a57600080fd5b836020870160208301376000602085830101528094505050505092915050565b60006020828403121561136c57600080fd5b813567ffffffffffffffff81111561138357600080fd5b61138f848285016112cd565b949350505050565b60006020808301818452808551808352604092508286019150828160051b87010184880160005b8381101561144f57888303603f19018552815180516001600160a01b031684528781015160e0898601819052906113f782870182611214565b915050878201518582038987015261140f8282611214565b606084810151908801526080808501519088015260a08085015115159088015260c0938401519390960192909252505093860193908601906001016113be565b509098975050505050505050565b80356001600160a01b038116811461147457600080fd5b919050565b6000806040838503121561148c57600080fd5b8235915061149c6020840161145d565b90509250929050565b600080604083850312156114b857600080fd5b50508035926020909101359150565b6000602082840312156114d957600080fd5b6114e28261145d565b9392505050565b600080600080608085870312156114ff57600080fd5b843567ffffffffffffffff8082111561151757600080fd5b611523888389016112cd565b9550602087013591508082111561153957600080fd5b50611546878288016112cd565b949794965050505060408301359260600135919050565b600181811c9082168061157157607f821691505b60208210810361159157634e487b7160e01b600052602260045260246000fd5b50919050565b634e487b7160e01b600052603260045260246000fd5b60008083546115bb8161155d565b600182811680156115d357600181146115e857611617565b60ff1984168752821515830287019450611617565b8760005260208060002060005b8581101561160e5781548a8201529084019082016115f5565b50505082870194505b50929695505050505050565b634e487b7160e01b600052601160045260246000fd5b60006001820161164b5761164b611623565b5060010190565b60006020828403121561166457600080fd5b5051919050565b60006020828403121561167d57600080fd5b815180151581146114e257600080fd5b80820180821115610eb357610eb3611623565b6000826116bd57634e487b7160e01b600052601260045260246000fd5b500490565b8082028115828204841417610eb357610eb3611623565b601f82111561172357600081815260208120601f850160051c810160208610156117005750805b601f850160051c820191505b8181101561171f5782815560010161170c565b5050505b505050565b815167ffffffffffffffff811115611742576117426112b7565b61175681611750845461155d565b846116d9565b602080601f83116001811461178b57600084156117735750858301515b600019600386901b1c1916600185901b17855561171f565b600085815260208120601f198616915b828110156117ba5788860151825594840194600190910190840161179b565b50858210156117d85787850151600019600388901b60f8161c191681555b5050505050600190811b01905550565b81810381811115610eb357610eb3611623565b60408152600061180e6040830185611214565b9050826020830152939250505056fea2646970667358221220fb8a5a30f98ad7c4e1ba70ab01483fd5c28421c30b91c945b51bb658c03d683264736f6c6343000811003360806040523480156200001157600080fd5b5060405180604001604052806009815260200168233ab7322a37b5b2b760b91b8152506040518060400160405280600381526020016246544b60e81b815250816003908162000061919062000224565b50600462000070828262000224565b505050620000aa3362000088620000b060201b60201c565b6200009590600a62000405565b620000a490620f42406200041d565b620000b5565b6200044d565b601290565b6001600160a01b038216620001105760405162461bcd60e51b815260206004820152601f60248201527f45524332303a206d696e7420746f20746865207a65726f206164647265737300604482015260640160405180910390fd5b806002600082825462000124919062000437565b90915550506001600160a01b038216600081815260208181526040808320805486019055518481527fddf252ad1be2c89b69c2b068fc378daa952ba7f163c4a11628f55a4df523b3ef910160405180910390a35050565b505050565b634e487b7160e01b600052604160045260246000fd5b600181811c90821680620001ab57607f821691505b602082108103620001cc57634e487b7160e01b600052602260045260246000fd5b50919050565b601f8211156200017b57600081815260208120601f850160051c81016020861015620001fb5750805b601f850160051c820191505b818110156200021c5782815560010162000207565b505050505050565b81516001600160401b0381111562000240576200024062000180565b620002588162000251845462000196565b84620001d2565b602080601f831160018114620002905760008415620002775750858301515b600019600386901b1c1916600185901b1785556200021c565b600085815260208120601f198616915b82811015620002c157888601518255948401946001909101908401620002a0565b5085821015620002e05787850151600019600388901b60f8161c191681555b5050505050600190811b01905550565b634e487b7160e01b600052601160045260246000fd5b600181815b80851115620003475781600019048211156200032b576200032b620002f0565b808516156200033957918102915b93841c93908002906200030b565b509250929050565b6000826200036057506001620003ff565b816200036f57506000620003ff565b81600181146200038857600281146200039357620003b3565b6001915050620003ff565b60ff841115620003a757620003a7620002f0565b50506001821b620003ff565b5060208310610133831016604e8410600b8410161715620003d8575081810a620003ff565b620003e4838362000306565b8060001904821115620003fb57620003fb620002f0565b0290505b92915050565b60006200041660ff8416836200034f565b9392505050565b8082028115828204841417620003ff57620003ff620002f0565b80820180821115620003ff57620003ff620002f0565b610852806200045d6000396000f3fe608060405234801561001057600080fd5b50600436106100a95760003560e01c80633950935111610071578063395093511461012357806370a082311461013657806395d89b411461015f578063a457c2d714610167578063a9059cbb1461017a578063dd62ed3e1461018d57600080fd5b806306fdde03146100ae578063095ea7b3146100cc57806318160ddd146100ef57806323b872dd14610101578063313ce56714610114575b600080fd5b6100b66101a0565b6040516100c3919061069c565b60405180910390f35b6100df6100da366004610706565b610232565b60405190151581526020016100c3565b6002545b6040519081526020016100c3565b6100df61010f366004610730565b61024c565b604051601281526020016100c3565b6100df610131366004610706565b610270565b6100f361014436600461076c565b6001600160a01b031660009081526020819052604090205490565b6100b6610292565b6100df610175366004610706565b6102a1565b6100df610188366004610706565b610321565b6100f361019b36600461078e565b61032f565b6060600380546101af906107c1565b80601f01602080910402602001604051908101604052809291908181526020018280546101db906107c1565b80156102285780601f106101fd57610100808354040283529160200191610228565b820191906000526020600020905b81548152906001019060200180831161020b57829003601f168201915b5050505050905090565b60003361024081858561035a565b60019150505b92915050565b60003361025a85828561047e565b6102658585856104f8565b506001949350505050565b600033610240818585610283838361032f565b61028d91906107fb565b61035a565b6060600480546101af906107c1565b600033816102af828661032f565b9050838110156103145760405162461bcd60e51b815260206004820152602560248201527f45524332303a2064656372656173656420616c6c6f77616e63652062656c6f77604482015264207a65726f60d81b60648201526084015b60405180910390fd5b610265828686840361035a565b6000336102408185856104f8565b6001600160a01b03918216600090815260016020908152604080832093909416825291909152205490565b6001600160a01b0383166103bc5760405162461bcd60e51b8152602060048201526024808201527f45524332303a20617070726f76652066726f6d20746865207a65726f206164646044820152637265737360e01b606482015260840161030b565b6001600160a01b03821661041d5760405162461bcd60e51b815260206004820152602260248201527f45524332303a20617070726f766520746f20746865207a65726f206164647265604482015261737360f01b606482015260840161030b565b6001600160a01b0383811660008181526001602090815260408083209487168084529482529182902085905590518481527f8c5be1e5ebec7d5bd14f71427d1e84f3dd0314c0f7b2291e5b200ac8c7c3b925910160405180910390a3505050565b600061048a848461032f565b905060001981146104f257818110156104e55760405162461bcd60e51b815260206004820152601d60248201527f45524332303a20696e73756666696369656e7420616c6c6f77616e6365000000604482015260640161030b565b6104f2848484840361035a565b50505050565b6001600160a01b03831661055c5760405162461bcd60e51b815260206004820152602560248201527f45524332303a207472616e736665722066726f6d20746865207a65726f206164604482015264647265737360d81b606482015260840161030b565b6001600160a01b0382166105be5760405162461bcd60e51b815260206004820152602360248201527f45524332303a207472616e7366657220746f20746865207a65726f206164647260448201526265737360e81b606482015260840161030b565b6001600160a01b038316600090815260208190526040902054818110156106365760405162461bcd60e51b815260206004820152602660248201527f45524332303a207472616e7366657220616d6f756e7420657863656564732062604482015265616c616e636560d01b606482015260840161030b565b6001600160a01b03848116600081815260208181526040808320878703905593871680835291849020805487019055925185815290927fddf252ad1be2c89b69c2b068fc378daa952ba7f163c4a11628f55a4df523b3ef910160405180910390a36104f2565b600060208083528351808285015260005b818110156106c9578581018301518582016040015282016106ad565b506000604082860101526040601f19601f8301168501019250505092915050565b80356001600160a01b038116811461070157600080fd5b919050565b6000806040838503121561071957600080fd5b610722836106ea565b946020939093013593505050565b60008060006060848603121561074557600080fd5b61074e846106ea565b925061075c602085016106ea565b9150604084013590509250925092565b60006020828403121561077e57600080fd5b610787826106ea565b9392505050565b600080604083850312156107a157600080fd5b6107aa836106ea565b91506107b8602084016106ea565b90509250929050565b600181811c908216806107d557607f821691505b6020821081036107f557634e487b7160e01b600052602260045260246000fd5b50919050565b8082018082111561024657634e487b7160e01b600052601160045260246000fdfea264697066735822122032b9643310771ce020e4a68ac686aca7ee92f18551494b4d74a51e82595ccb4364736f6c63430008110033",
  "devdoc": {
    "kind": "dev",
    "methods": {},
    "version": 1
  },
  "userdoc": {
    "kind": "user",
    "methods": {},
    "version": 1
  },
  "storageLayout": {
    "storage": [
      {
        "astId": 758,
        "contract": "contracts/Fundraising.sol:Fundraising",
        "label": "contributions",
        "offset": 0,
        "slot": "0",
        "type": "t_mapping(t_uint256,t_mapping(t_address,t_uint256))"
      },
      {
        "astId": 762,
        "contract": "contracts/Fundraising.sol:Fundraising",
        "label": "campaigns",
        "offset": 0,
        "slot": "1",
        "type": "t_array(t_struct(Campaign)752_storage)dyn_storage"
      },
      {
        "astId": 765,
        "contract": "contracts/Fundraising.sol:Fundraising",
        "label": "fundToken",
        "offset": 0,
        "slot": "2",
        "type": "t_contract(ERC20)586"
      },
      {
        "astId": 768,
        "contract": "contracts/Fundraising.sol:Fundraising",
        "label": "stablecoin",
        "offset": 0,
        "slot": "3",
        "type": "t_contract(ERC20)586"
      },
      {
        "astId": 770,
        "contract": "contracts/Fundraising.sol:Fundraising",
        "label": "owner",
        "offset": 0,
        "slot": "4",
        "type": "t_address"
      }
    ],
    "types": {
      "t_address": {
        "encoding": "inplace",
        "label": "address",
        "numberOfBytes": "20"
      },
      "t_array(t_struct(Campaign)752_storage)dyn_storage": {
        "base": "t_struct(Campaign)752_storage",
        "encoding": "dynamic_array",
        "label": "struct Fundraising.Campaign[]",
        "numberOfBytes": "32"
      },
      "t_bool": {
        "encoding": "inplace",
        "label": "bool",
        "numberOfBytes": "1"
      },
      "t_contract(ERC20)586": {
        "encoding": "inplace",
        "label": "contract ERC20",
        "numberOfBytes": "20"
      },
      "t_mapping(t_address,t_uint256)": {
        "encoding": "mapping",
        "key": "t_address",
        "label": "mapping(address => uint256)",
        "numberOfBytes": "32",
        "value": "t_uint256"
      },
      "t_mapping(t_uint256,t_mapping(t_address,t_uint256))": {
        "encoding": "mapping",
        "key": "t_uint256",
        "label": "mapping(uint256 => mapping(address => uint256))",
        "numberOfBytes": "32",
        "value": "t_mapping(t_address,t_uint256)"
      },
      "t_string_storage": {
        "encoding": "bytes",
        "label": "string",
        "numberOfBytes": "32"
      },
      "t_struct(Campaign)752_storage": {
        "encoding": "inplace",
        "label": "struct Fundraising.Campaign",
        "members": [
          {
            "astId": 739,
            "contract": "contracts/Fundraising.sol:Fundraising",
            "label": "creator",
            "offset": 0,
            "slot": "0",
            "type": "t_address"
          },
          {
            "astId": 741,
            "contract": "contracts/Fundraising.sol:Fundraising",
            "label": "ipfs",
            "offset": 0,
            "slot": "1",
            "type": "t_string_storage"
          },
          {
            "astId": 743,
            "contract": "contracts/Fundraising.sol:Fundraising",
            "label": "club",
            "offset": 0,
            "slot": "2",
            "type": "t_string_storage"
          },
          {
            "astId": 745,
            "contract": "contracts/Fundraising.sol:Fundraising",
            "label": "goalAmount",
            "offset": 0,
            "slot": "3",
            "type": "t_uint256"
          },
          {
            "astId": 747,
            "contract": "contracts/Fundraising.sol:Fundraising",
            "label": "currentAmount",
            "offset": 0,
            "slot": "4",
            "type": "t_uint256"
          },
          {
            "astId": 749,
            "contract": "contracts/Fundraising.sol:Fundraising",
            "label": "finalized",
            "offset": 0,
            "slot": "5",
            "type": "t_bool"
          },
          {
            "astId": 751,
            "contract": "contracts/Fundraising.sol:Fundraising",
            "label": "endCampaign",
            "offset": 0,
            "slot": "6",
            "type": "t_uint256"
          }
        ],
        "numberOfBytes": "224"
      },
      "t_uint256": {
        "encoding": "inplace",
        "label": "uint256",
        "numberOfBytes": "32"
      }
    }
  }
}